{
  "contractName": "Ratings",
  "abi": [
    {
      "anonymous": false,
      "inputs": [
        {
          "indexed": true,
          "internalType": "address",
          "name": "_addr",
          "type": "address"
        },
        {
          "indexed": false,
          "internalType": "uint8",
          "name": "_rating",
          "type": "uint8"
        }
      ],
      "name": "RateUser",
      "type": "event"
    },
    {
      "constant": true,
      "inputs": [
        {
          "internalType": "address",
          "name": "",
          "type": "address"
        }
      ],
      "name": "ratings",
      "outputs": [
        {
          "internalType": "uint256",
          "name": "ratingCount",
          "type": "uint256"
        },
        {
          "internalType": "uint256",
          "name": "timestamp",
          "type": "uint256"
        }
      ],
      "payable": false,
      "stateMutability": "view",
      "type": "function"
    },
    {
      "constant": true,
      "inputs": [
        {
          "internalType": "address",
          "name": "",
          "type": "address"
        },
        {
          "internalType": "address",
          "name": "",
          "type": "address"
        }
      ],
      "name": "ratingsPerUser",
      "outputs": [
        {
          "internalType": "uint8",
          "name": "",
          "type": "uint8"
        }
      ],
      "payable": false,
      "stateMutability": "view",
      "type": "function"
    },
    {
      "constant": false,
      "inputs": [
        {
          "internalType": "address",
          "name": "_addr",
          "type": "address"
        },
        {
          "internalType": "uint8",
          "name": "_rating",
          "type": "uint8"
        }
      ],
      "name": "rateUser",
      "outputs": [
        {
          "internalType": "bool",
          "name": "",
          "type": "bool"
        }
      ],
      "payable": false,
      "stateMutability": "nonpayable",
      "type": "function"
    },
    {
      "constant": true,
      "inputs": [
        {
          "internalType": "address",
          "name": "_addr",
          "type": "address"
        }
      ],
      "name": "getUserRatings",
      "outputs": [
        {
          "internalType": "uint8",
          "name": "",
          "type": "uint8"
        },
        {
          "internalType": "uint256",
          "name": "",
          "type": "uint256"
        }
      ],
      "payable": false,
      "stateMutability": "view",
      "type": "function"
    },
    {
      "constant": true,
      "inputs": [
        {
          "internalType": "address",
          "name": "_user1",
          "type": "address"
        },
        {
          "internalType": "address",
          "name": "_user2",
          "type": "address"
        }
      ],
      "name": "ratingDetails",
      "outputs": [
        {
          "internalType": "uint256",
          "name": "",
          "type": "uint256"
        }
      ],
      "payable": false,
      "stateMutability": "view",
      "type": "function"
    }
  ],
  "bytecode": "0x608060405234801561001057600080fd5b506106b9806100206000396000f3fe608060405234801561001057600080fd5b50600436106100575760003560e01c80633a67bc511461005c5780639e01dfbb146100da578063bbb8e28314610139578063c18ed7b9146101a2578063f50336f91461021a575b600080fd5b6100be6004803603604081101561007257600080fd5b81019080803573ffffffffffffffffffffffffffffffffffffffff169060200190929190803573ffffffffffffffffffffffffffffffffffffffff16906020019092919050505061027f565b604051808260ff1660ff16815260200191505060405180910390f35b61011c600480360360208110156100f057600080fd5b81019080803573ffffffffffffffffffffffffffffffffffffffff1690602001909291905050506102ae565b604051808381526020018281526020019250505060405180910390f35b6101886004803603604081101561014f57600080fd5b81019080803573ffffffffffffffffffffffffffffffffffffffff169060200190929190803560ff1690602001909291905050506102d2565b604051808215151515815260200191505060405180910390f35b610204600480360360408110156101b857600080fd5b81019080803573ffffffffffffffffffffffffffffffffffffffff169060200190929190803573ffffffffffffffffffffffffffffffffffffffff169060200190929190505050610516565b6040518082815260200191505060405180910390f35b61025c6004803603602081101561023057600080fd5b81019080803573ffffffffffffffffffffffffffffffffffffffff1690602001909291905050506105ac565b604051808360ff1660ff1681526020018281526020019250505060405180910390f35b60006020528160005260406000206020528060005260406000206000915091509054906101000a900460ff1681565b60016020528060005260406000206000915090508060000154908060010154905082565b6000808260ff161180156102ea575060058260ff1611155b6102f357600080fd5b60008060008573ffffffffffffffffffffffffffffffffffffffff1673ffffffffffffffffffffffffffffffffffffffff16815260200190815260200160002060003373ffffffffffffffffffffffffffffffffffffffff1673ffffffffffffffffffffffffffffffffffffffff16815260200190815260200160002060009054906101000a900460ff1660ff161461038b57600080fd5b816000808573ffffffffffffffffffffffffffffffffffffffff1673ffffffffffffffffffffffffffffffffffffffff16815260200190815260200160002060003373ffffffffffffffffffffffffffffffffffffffff1673ffffffffffffffffffffffffffffffffffffffff16815260200190815260200160002060006101000a81548160ff021916908360ff16021790555042600160008573ffffffffffffffffffffffffffffffffffffffff1673ffffffffffffffffffffffffffffffffffffffff16815260200190815260200160002060010181905550600160008473ffffffffffffffffffffffffffffffffffffffff1673ffffffffffffffffffffffffffffffffffffffff168152602001908152602001600020600001600081548092919060010191905055508273ffffffffffffffffffffffffffffffffffffffff167f7dedcb6cf5208df9a18203fecc353f4a7396c9d798a8609acaa9b283be3158d083604051808260ff1660ff16815260200191505060405180910390a26001905092915050565b60008060008473ffffffffffffffffffffffffffffffffffffffff1673ffffffffffffffffffffffffffffffffffffffff16815260200190815260200160002060008373ffffffffffffffffffffffffffffffffffffffff1673ffffffffffffffffffffffffffffffffffffffff16815260200190815260200160002060009054906101000a900460ff1660ff16905092915050565b6000806000808473ffffffffffffffffffffffffffffffffffffffff1673ffffffffffffffffffffffffffffffffffffffff16815260200190815260200160002060003373ffffffffffffffffffffffffffffffffffffffff1673ffffffffffffffffffffffffffffffffffffffff16815260200190815260200160002060009054906101000a900460ff16600160008573ffffffffffffffffffffffffffffffffffffffff1673ffffffffffffffffffffffffffffffffffffffff168152602001908152602001600020600101549150915091509156fea265627a7a72315820a7a87da261e7331f6f9fc438f2279f4e2f0ac88b36bab866464eb69a1076ce7a64736f6c63430005100032",
  "source": "pragma solidity >=0.4.22 <0.7.0;\n\ncontract Ratings {\n\n    struct Rating {\n        uint256 ratingCount;\n        uint256 timestamp;\n    }\n\n    mapping(address => mapping(address => uint8)) public ratingsPerUser;\n\n    mapping (address => Rating) public ratings;\n\n\tevent RateUser(address indexed _addr, uint8 _rating);\n    \n    // Rate a particular user\n    // @param _addr - address of the user you want to rate\n    //        _rating - rating for that user\n    // @returns true - If the rating process is successful.\n    function rateUser (address _addr, uint8 _rating) external returns(bool) {\n        // User can rate only between 1 to 5\n        require(_rating > 0 && _rating <= 5); \n        \n        // One particular user can rate some other user only once\n        require(ratingsPerUser[_addr][msg.sender] == 0); \n        \n        // Update the rating of the user\n        ratingsPerUser[_addr][msg.sender] = _rating;\n        \n        //Update the timestamp\n        ratings[_addr].timestamp = now;\n        \n        // Returns the total number of ratings for a particular user\n        ratings[_addr].ratingCount++;\n        \n\t\temit RateUser(_addr, _rating);\n        return true;\n    }\n    \n    // Get the rating for a particular user\n    // @param _addr - address of the user account \n    // @returns rating of the user and the timestamp\n    function getUserRatings(address _addr) public view returns(uint8,uint256){\n        return (ratingsPerUser[_addr][msg.sender],ratings[_addr].timestamp);\n    }\n    \n    // Get to know whether a user rated another user or not.\n    // @param _user1 - address of the user\n    //        _user2 - address of the user\n    // @returns the rating that is given from _user1 to _user2\n    function ratingDetails(address _user1, address _user2) public view returns(uint256){\n        return ratingsPerUser[_user1][_user2];\n    } \n}",
  "sourcePath": "/Users/sushmavaradaiah/Desktop/new/rating_app/contracts/Ratings.sol",
  "compiler": {
    "name": "solc",
    "version": "0.5.16+commit.9c3226ce.Emscripten.clang"
  },
  "schemaVersion": "3.2.3",
  "updatedAt": "2020-08-09T08:53:33.123Z",
  "networkType": "ethereum",
  "devdoc": {
    "methods": {}
  },
  "userdoc": {
    "methods": {}
  }
}